:1000000011C028C027C026C025C024C023C022C0DC
:1000100021C020C01FC01BC11DC01CC01BC01AC0F6
:1000200019C0DD0111241FBECFEDCDBF20E0A0E639
:10003000B0E001C01D92AF3BB207E1F710E0C2E1B2
:10004000D0E003C02197FE01EBD1C131D107D1F738
:100050003AD1ECC1D5CFCF92DF92EF92FF924FB75A
:10006000F894C090A700D090A800E090A900F0906C
:10007000AA003091A60082B798B7292F217090FF6F
:1000800004C021E08F3F09F420E04FBF90E0582FDB
:10009000442766E0880F991F6A95E1F7481B590BC2
:1000A000C701B601E7E0660F771F881F991FEA9521
:1000B000D1F7630F711D811D911D6C197D098E098A
:1000C0009F09CC0CDD1CEE1CFF1C6C197D098E09F0
:1000D0009F09A3E0660F771F881F991FAA95D1F784
:1000E000FA01B4E0F695E795BA95E1F74E0F5F1F78
:1000F00036E0569547953A95E1F7640F751F811DD7
:10010000911D222321F06D5C7C4F8F4F9F4FFF90FC
:10011000EF90DF90CF9008950F931F93CF93DF93CD
:10012000CDB7DD27C750CDBF96DF0091B800109145
:10013000B9002091BA003091BB00601B710B820B9B
:10014000930B623371058105910570F3F8948091EA
:10015000AE009091AF009A838983E091B200F09154
:10016000B300DF01119680818F83E091BC00F09194
:10017000BD0090818091BE00982B9E8390818095D8
:1001800089238D838D818C8388E08B835E816D8153
:100190004F813B812C8189819A81508347FD252F96
:1001A0003A9500C02083262F41F0441F00C0000074
:1001B000608300C000C000C0F0CF38E04D91608384
:1001C00000C000C0019749F7F093BD00E093BC0068
:1001D0004F833B832C839A83898378943CDF60939D
:1001E000B8007093B9008093BA009093BB00C95FC8
:1001F000CDBFDF91CF911F910F910895CF92DF92E4
:10020000EF92FF92CF93DF936B017C0124DFEB0130
:10021000C114D104E104F10441F412C081E0C81A10
:10022000D108E108F108C851DC4F15DF6C1B7D0BCC
:10023000683E734068F3C114D104E104F10471F71E
:10024000DF91CF91FF90EF90DF90CF9008951F92B4
:100250000F920FB60F9211244F935F936F937F937A
:100260008F939F934091A7005091A8006091A9009F
:100270007091AA008091A6009091A5009F5F909335
:10028000A500963608F48F5F96E6980F9D3730F0FC
:1002900099EE980F4F5F5F4F6F4F7F4F9093A6007F
:1002A0004093A7005093A8006093A9007093AA0000
:1002B0009F918F917F916F915F914F910F900FBEA2
:1002C0000F901F90189583E080BF83BF789499B7F3
:1002D000916099BF91E09FBD8EBD87E886B98FB7C9
:1002E000F894D39A8FBF16E9D0E0C0E08091AC00BB
:1002F0009091AD00C817D90760F58091B10046E92B
:10030000882329F090E066E970E079D0492FE091E8
:10031000B7002091B2003091B3008091B400E8138F
:1003200040C0CE0163E070E06AD0820F931FE0917D
:10033000B400E80FF92FF11D1082E091B500E80F2D
:10034000F92FF11D40832091B600820F911DFC0111
:1003500010828091B2009091B300892B09F0DCDE0D
:1003600064EF71E080E090E049DF2196C731D1056C
:1003700009F0BCCFC0E6D0E019938091B200909113
:10038000B300892B09F0C8DE64EF71E080E090E0F3
:1003900035DFFE0131971082F0E0C53ADF0761F7E3
:1003A000A3CFCE01880F991F880F991F820F931F2B
:1003B000E80FF92FF11D1082BACFEBEAF0E01682B8
:1003C00080E690E090878783158616861786108AC8
:1003D00081E084878187128682E0838785E490E0CC
:1003E0009483838387E190E09283818383E0858394
:1003F0008BE390E0928B818B88E0838B08950024BF
:10040000552704C0080E591F880F991F009729F01F
:1004100076956795B8F37105B9F7802D952F0895F6
:10042000EE0FFF1F0590F491E02D0994F894FFCF93
:00000001FF
